{
  "contractName": "Crowdsale",
  "abi": [
    {
      "inputs": [
        {
          "internalType": "uint256",
          "name": "_icoStartTime",
          "type": "uint256"
        },
        {
          "internalType": "uint256",
          "name": "_icoEndTime",
          "type": "uint256"
        },
        {
          "internalType": "uint256",
          "name": "_tokenRate",
          "type": "uint256"
        },
        {
          "internalType": "address",
          "name": "_tokenAddress",
          "type": "address"
        },
        {
          "internalType": "uint256",
          "name": "_fundingGoal",
          "type": "uint256"
        }
      ],
      "payable": false,
      "stateMutability": "nonpayable",
      "type": "constructor"
    },
    {
      "constant": true,
      "inputs": [],
      "name": "etherRaised",
      "outputs": [
        {
          "internalType": "uint256",
          "name": "",
          "type": "uint256"
        }
      ],
      "payable": false,
      "stateMutability": "view",
      "type": "function"
    },
    {
      "constant": true,
      "inputs": [],
      "name": "fundingGoal",
      "outputs": [
        {
          "internalType": "uint256",
          "name": "",
          "type": "uint256"
        }
      ],
      "payable": false,
      "stateMutability": "view",
      "type": "function"
    },
    {
      "constant": true,
      "inputs": [],
      "name": "icoEndTime",
      "outputs": [
        {
          "internalType": "uint256",
          "name": "",
          "type": "uint256"
        }
      ],
      "payable": false,
      "stateMutability": "view",
      "type": "function"
    },
    {
      "constant": true,
      "inputs": [],
      "name": "icoStartTime",
      "outputs": [
        {
          "internalType": "uint256",
          "name": "",
          "type": "uint256"
        }
      ],
      "payable": false,
      "stateMutability": "view",
      "type": "function"
    },
    {
      "constant": true,
      "inputs": [],
      "name": "limitTierFour",
      "outputs": [
        {
          "internalType": "uint256",
          "name": "",
          "type": "uint256"
        }
      ],
      "payable": false,
      "stateMutability": "view",
      "type": "function"
    },
    {
      "constant": true,
      "inputs": [],
      "name": "limitTierOne",
      "outputs": [
        {
          "internalType": "uint256",
          "name": "",
          "type": "uint256"
        }
      ],
      "payable": false,
      "stateMutability": "view",
      "type": "function"
    },
    {
      "constant": true,
      "inputs": [],
      "name": "limitTierThree",
      "outputs": [
        {
          "internalType": "uint256",
          "name": "",
          "type": "uint256"
        }
      ],
      "payable": false,
      "stateMutability": "view",
      "type": "function"
    },
    {
      "constant": true,
      "inputs": [],
      "name": "limitTierTwo",
      "outputs": [
        {
          "internalType": "uint256",
          "name": "",
          "type": "uint256"
        }
      ],
      "payable": false,
      "stateMutability": "view",
      "type": "function"
    },
    {
      "constant": true,
      "inputs": [],
      "name": "rateFour",
      "outputs": [
        {
          "internalType": "uint256",
          "name": "",
          "type": "uint256"
        }
      ],
      "payable": false,
      "stateMutability": "view",
      "type": "function"
    },
    {
      "constant": true,
      "inputs": [],
      "name": "rateOne",
      "outputs": [
        {
          "internalType": "uint256",
          "name": "",
          "type": "uint256"
        }
      ],
      "payable": false,
      "stateMutability": "view",
      "type": "function"
    },
    {
      "constant": true,
      "inputs": [],
      "name": "rateThree",
      "outputs": [
        {
          "internalType": "uint256",
          "name": "",
          "type": "uint256"
        }
      ],
      "payable": false,
      "stateMutability": "view",
      "type": "function"
    },
    {
      "constant": true,
      "inputs": [],
      "name": "rateTwo",
      "outputs": [
        {
          "internalType": "uint256",
          "name": "",
          "type": "uint256"
        }
      ],
      "payable": false,
      "stateMutability": "view",
      "type": "function"
    },
    {
      "constant": true,
      "inputs": [],
      "name": "token",
      "outputs": [
        {
          "internalType": "contract ICOToken",
          "name": "",
          "type": "address"
        }
      ],
      "payable": false,
      "stateMutability": "view",
      "type": "function"
    },
    {
      "constant": true,
      "inputs": [],
      "name": "tokenAddress",
      "outputs": [
        {
          "internalType": "address",
          "name": "",
          "type": "address"
        }
      ],
      "payable": false,
      "stateMutability": "view",
      "type": "function"
    },
    {
      "constant": true,
      "inputs": [],
      "name": "tokenRate",
      "outputs": [
        {
          "internalType": "uint256",
          "name": "",
          "type": "uint256"
        }
      ],
      "payable": false,
      "stateMutability": "view",
      "type": "function"
    },
    {
      "constant": true,
      "inputs": [],
      "name": "tokensRaised",
      "outputs": [
        {
          "internalType": "uint256",
          "name": "",
          "type": "uint256"
        }
      ],
      "payable": false,
      "stateMutability": "view",
      "type": "function"
    },
    {
      "constant": false,
      "inputs": [],
      "name": "buy",
      "outputs": [],
      "payable": true,
      "stateMutability": "payable",
      "type": "function"
    },
    {
      "constant": false,
      "inputs": [],
      "name": "extractEther",
      "outputs": [],
      "payable": false,
      "stateMutability": "nonpayable",
      "type": "function"
    },
    {
      "constant": false,
      "inputs": [
        {
          "internalType": "uint256",
          "name": "amount",
          "type": "uint256"
        },
        {
          "internalType": "uint256",
          "name": "tokensThisTier",
          "type": "uint256"
        },
        {
          "internalType": "uint256",
          "name": "tierSelected",
          "type": "uint256"
        },
        {
          "internalType": "uint256",
          "name": "_rate",
          "type": "uint256"
        }
      ],
      "name": "calculateExcessTokens",
      "outputs": [
        {
          "internalType": "uint256",
          "name": "totalTokens",
          "type": "uint256"
        }
      ],
      "payable": false,
      "stateMutability": "nonpayable",
      "type": "function"
    }
  ],
  "bytecode": "0x6080604052611388600a55610fa0600b55610bb8600c556107d0600d55600760009054906101000a900473ffffffffffffffffffffffffffffffffffffffff1673ffffffffffffffffffffffffffffffffffffffff1663313ce5676040518163ffffffff1660e01b815260040160206040518083038186803b1580156200008557600080fd5b505afa1580156200009a573d6000803e3d6000fd5b505050506040513d6020811015620000b157600080fd5b8101908080519060200190929190505050600a0a63017d784001600e55600760009054906101000a900473ffffffffffffffffffffffffffffffffffffffff1673ffffffffffffffffffffffffffffffffffffffff1663313ce5676040518163ffffffff1660e01b815260040160206040518083038186803b1580156200013757600080fd5b505afa1580156200014c573d6000803e3d6000fd5b505050506040513d60208110156200016357600080fd5b8101908080519060200190929190505050600a0a6302faf08001600f55600760009054906101000a900473ffffffffffffffffffffffffffffffffffffffff1673ffffffffffffffffffffffffffffffffffffffff1663313ce5676040518163ffffffff1660e01b815260040160206040518083038186803b158015620001e957600080fd5b505afa158015620001fe573d6000803e3d6000fd5b505050506040513d60208110156200021557600080fd5b8101908080519060200190929190505050600a0a63047868c001601055600760009054906101000a900473ffffffffffffffffffffffffffffffffffffffff1673ffffffffffffffffffffffffffffffffffffffff1663313ce5676040518163ffffffff1660e01b815260040160206040518083038186803b1580156200029b57600080fd5b505afa158015620002b0573d6000803e3d6000fd5b505050506040513d6020811015620002c757600080fd5b8101908080519060200190929190505050600a0a6305f5e10001601155348015620002f157600080fd5b506040516200219038038062002190833981810160405260a08110156200031757600080fd5b8101908080519060200190929190805190602001909291908051906020019092919080519060200190929190805190602001909291905050506000851415801562000363575060008414155b80156200036f57508385105b80156200037d575060008314155b8015620003b75750600073ffffffffffffffffffffffffffffffffffffffff168273ffffffffffffffffffffffffffffffffffffffff1614155b8015620003c5575060008114155b620003cf57600080fd5b84600181905550836002819055508260038190555081600460006101000a81548173ffffffffffffffffffffffffffffffffffffffff021916908373ffffffffffffffffffffffffffffffffffffffff1602179055508060058190555081600760006101000a81548173ffffffffffffffffffffffffffffffffffffffff021916908373ffffffffffffffffffffffffffffffffffffffff16021790555033600660006101000a81548173ffffffffffffffffffffffffffffffffffffffff021916908373ffffffffffffffffffffffffffffffffffffffff160217905550620004be620004c960201b60201c565b50505050506200103f565b60055460085410620004da57600080fd5b60025442108015620004ed575060015442115b620004f757600080fd5b600080349050600e546008541015620005fe57600a54670de0b6b3a7640000600760009054906101000a900473ffffffffffffffffffffffffffffffffffffffff1673ffffffffffffffffffffffffffffffffffffffff1663313ce5676040518163ffffffff1660e01b815260040160206040518083038186803b1580156200057f57600080fd5b505afa15801562000594573d6000803e3d6000fd5b505050506040513d6020811015620005ab57600080fd5b8101908080519060200190929190505050600a0a830281620005c957fe5b04029150600e5482600854011115620005f857620005f581600e546001600a5462000b1760201b60201c565b91505b620008f5565b600e5460085410158015620006165750600f54600854105b156200071057600b54670de0b6b3a7640000600760009054906101000a900473ffffffffffffffffffffffffffffffffffffffff1673ffffffffffffffffffffffffffffffffffffffff1663313ce5676040518163ffffffff1660e01b815260040160206040518083038186803b1580156200069157600080fd5b505afa158015620006a6573d6000803e3d6000fd5b505050506040513d6020811015620006bd57600080fd5b8101908080519060200190929190505050600a0a830281620006db57fe5b04029150600f54826008540111156200070a576200070781600f546002600b5462000b1760201b60201c565b91505b620008f4565b600f5460085410158015620007285750601054600854105b156200082257600c54670de0b6b3a7640000600760009054906101000a900473ffffffffffffffffffffffffffffffffffffffff1673ffffffffffffffffffffffffffffffffffffffff1663313ce5676040518163ffffffff1660e01b815260040160206040518083038186803b158015620007a357600080fd5b505afa158015620007b8573d6000803e3d6000fd5b505050506040513d6020811015620007cf57600080fd5b8101908080519060200190929190505050600a0a830281620007ed57fe5b04029150601054826008540111156200081c5762000819816010546003600c5462000b1760201b60201c565b91505b620008f3565b60105460085410620008f257600d54670de0b6b3a7640000600760009054906101000a900473ffffffffffffffffffffffffffffffffffffffff1673ffffffffffffffffffffffffffffffffffffffff1663313ce5676040518163ffffffff1660e01b815260040160206040518083038186803b158015620008a357600080fd5b505afa158015620008b8573d6000803e3d6000fd5b505050506040513d6020811015620008cf57600080fd5b8101908080519060200190929190505050600a0a830281620008ed57fe5b040291505b5b5b5b6005548260085401111562000a3057600060055483600854010390506000600760009054906101000a900473ffffffffffffffffffffffffffffffffffffffff1673ffffffffffffffffffffffffffffffffffffffff1663313ce5676040518163ffffffff1660e01b815260040160206040518083038186803b1580156200097c57600080fd5b505afa15801562000991573d6000803e3d6000fd5b505050506040513d6020811015620009a857600080fd5b8101908080519060200190929190505050600354670de0b6b3a7640000840281620009cf57fe5b0481620009d857fe5b0490503373ffffffffffffffffffffffffffffffffffffffff166108fc829081150290604051600060405180830381858888f1935050505015801562000a22573d6000803e3d6000fd5b508184039350808303925050505b600760009054906101000a900473ffffffffffffffffffffffffffffffffffffffff1673ffffffffffffffffffffffffffffffffffffffff16630752881a33846040518363ffffffff1660e01b8152600401808373ffffffffffffffffffffffffffffffffffffffff1673ffffffffffffffffffffffffffffffffffffffff16815260200182815260200192505050600060405180830381600087803b15801562000ada57600080fd5b505af115801562000aef573d6000803e3d6000fd5b5050505081600860008282540192505081905550806009600082825401925050819055505050565b6000808511801562000b295750600084115b801562000b365750600082115b62000b4057600080fd5b6001831015801562000b53575060048311155b62000b5d57600080fd5b600062000b948362000b806008548862000c9360201b62000d7b1790919060201c565b62000cab60201b62000d921790919060201c565b9050600062000bb2828862000c9360201b62000d7b1790919060201c565b9050600080905060008090506004871462000bfb5762000bf38362000be760018a62000cb360201b62000d9a1790919060201c565b62000cce60201b60201c565b915062000c00565b600190505b62000c358262000c216008548b62000c9360201b62000d7b1790919060201c565b62000cb360201b62000d9a1790919060201c565b9450801562000c87573373ffffffffffffffffffffffffffffffffffffffff166108fc849081150290604051600060405180830381858888f1935050505015801562000c85573d6000803e3d6000fd5b505b50505050949350505050565b60008282111562000ca057fe5b818303905092915050565b600092915050565b600081830190508281101562000cc557fe5b80905092915050565b600080831162000cdd57600080fd5b6001821015801562000cf0575060048211155b62000cfa57600080fd5b600182141562000dcd57600a54670de0b6b3a7640000600760009054906101000a900473ffffffffffffffffffffffffffffffffffffffff1673ffffffffffffffffffffffffffffffffffffffff1663313ce5676040518163ffffffff1660e01b815260040160206040518083038186803b15801562000d7957600080fd5b505afa15801562000d8e573d6000803e3d6000fd5b505050506040513d602081101562000da557600080fd5b8101908080519060200190929190505050600a0a85028162000dc357fe5b0402905062001039565b600282141562000ea057600b54670de0b6b3a7640000600760009054906101000a900473ffffffffffffffffffffffffffffffffffffffff1673ffffffffffffffffffffffffffffffffffffffff1663313ce5676040518163ffffffff1660e01b815260040160206040518083038186803b15801562000e4c57600080fd5b505afa15801562000e61573d6000803e3d6000fd5b505050506040513d602081101562000e7857600080fd5b8101908080519060200190929190505050600a0a85028162000e9657fe5b0402905062001038565b600382141562000f7357600c54670de0b6b3a7640000600760009054906101000a900473ffffffffffffffffffffffffffffffffffffffff1673ffffffffffffffffffffffffffffffffffffffff1663313ce5676040518163ffffffff1660e01b815260040160206040518083038186803b15801562000f1f57600080fd5b505afa15801562000f34573d6000803e3d6000fd5b505050506040513d602081101562000f4b57600080fd5b8101908080519060200190929190505050600a0a85028162000f6957fe5b0402905062001037565b600d54670de0b6b3a7640000600760009054906101000a900473ffffffffffffffffffffffffffffffffffffffff1673ffffffffffffffffffffffffffffffffffffffff1663313ce5676040518163ffffffff1660e01b815260040160206040518083038186803b15801562000fe857600080fd5b505afa15801562000ffd573d6000803e3d6000fd5b505050506040513d60208110156200101457600080fd5b8101908080519060200190929190505050600a0a8502816200103257fe5b040290505b5b5b92915050565b611141806200104f6000396000f3fe6080604052600436106101145760003560e01c80639d76ea58116100a0578063b8a3e45411610064578063b8a3e454146103ac578063cd72ab69146103d7578063dc26fc4514610402578063e08c5f011461042d578063fc0c546a1461045857610114565b80639d76ea58146102de5780639fee597b14610335578063a6f2ae3a1461034c578063a7c3d71b14610356578063b4958eb41461038157610114565b8063712a94e5116100e7578063712a94e5146101c557806375b3ea8e146101f0578063764cc0ef1461025d5780637a3a0e84146102885780637e1055b6146102b357610114565b8063317118841461011957806331778e3c1461014457806367d067c41461016f5780636ea6b71b1461019a575b600080fd5b34801561012557600080fd5b5061012e6104af565b6040518082815260200191505060405180910390f35b34801561015057600080fd5b506101596104b5565b6040518082815260200191505060405180910390f35b34801561017b57600080fd5b506101846104bb565b6040518082815260200191505060405180910390f35b3480156101a657600080fd5b506101af6104c1565b6040518082815260200191505060405180910390f35b3480156101d157600080fd5b506101da6104c7565b6040518082815260200191505060405180910390f35b3480156101fc57600080fd5b506102476004803603608081101561021357600080fd5b81019080803590602001909291908035906020019092919080359060200190929190803590602001909291905050506104cd565b6040518082815260200191505060405180910390f35b34801561026957600080fd5b5061027261060e565b6040518082815260200191505060405180910390f35b34801561029457600080fd5b5061029d610614565b6040518082815260200191505060405180910390f35b3480156102bf57600080fd5b506102c861061a565b6040518082815260200191505060405180910390f35b3480156102ea57600080fd5b506102f3610620565b604051808273ffffffffffffffffffffffffffffffffffffffff1673ffffffffffffffffffffffffffffffffffffffff16815260200191505060405180910390f35b34801561034157600080fd5b5061034a610646565b005b610354610723565b005b34801561036257600080fd5b5061036b610d31565b6040518082815260200191505060405180910390f35b34801561038d57600080fd5b50610396610d37565b6040518082815260200191505060405180910390f35b3480156103b857600080fd5b506103c1610d3d565b6040518082815260200191505060405180910390f35b3480156103e357600080fd5b506103ec610d43565b6040518082815260200191505060405180910390f35b34801561040e57600080fd5b50610417610d49565b6040518082815260200191505060405180910390f35b34801561043957600080fd5b50610442610d4f565b6040518082815260200191505060405180910390f35b34801561046457600080fd5b5061046d610d55565b604051808273ffffffffffffffffffffffffffffffffffffffff1673ffffffffffffffffffffffffffffffffffffffff16815260200191505060405180910390f35b60035481565b60105481565b600f5481565b60085481565b600d5481565b600080851180156104de5750600084115b80156104ea5750600082115b6104f357600080fd5b60018310158015610505575060048311155b61050e57600080fd5b60006105378361052960085488610d7b90919063ffffffff16565b610d9290919063ffffffff16565b9050600061054e8288610d7b90919063ffffffff16565b905060008090506000809050600487146105865761057f8361057a60018a610d9a90919063ffffffff16565b610db4565b915061058b565b600190505b6105b2826105a46008548b610d7b90919063ffffffff16565b610d9a90919063ffffffff16565b94508015610602573373ffffffffffffffffffffffffffffffffffffffff166108fc849081150290604051600060405180830381858888f19350505050158015610600573d6000803e3d6000fd5b505b50505050949350505050565b600b5481565b60055481565b60025481565b600460009054906101000a900473ffffffffffffffffffffffffffffffffffffffff1681565b6000809054906101000a900460ff1661065e57600080fd5b600660009054906101000a900473ffffffffffffffffffffffffffffffffffffffff1673ffffffffffffffffffffffffffffffffffffffff163373ffffffffffffffffffffffffffffffffffffffff16146106b857600080fd5b600660009054906101000a900473ffffffffffffffffffffffffffffffffffffffff1673ffffffffffffffffffffffffffffffffffffffff166108fc479081150290604051600060405180830381858888f19350505050158015610720573d6000803e3d6000fd5b50565b6005546008541061073357600080fd5b60025442108015610745575060015442115b61074e57600080fd5b600080349050600e54600854101561084657600a54670de0b6b3a7640000600760009054906101000a900473ffffffffffffffffffffffffffffffffffffffff1673ffffffffffffffffffffffffffffffffffffffff1663313ce5676040518163ffffffff1660e01b815260040160206040518083038186803b1580156107d457600080fd5b505afa1580156107e8573d6000803e3d6000fd5b505050506040513d60208110156107fe57600080fd5b8101908080519060200190929190505050600a0a83028161081b57fe5b04029150600e54826008540111156108415761083e81600e546001600a546104cd565b91505b610b18565b600e546008541015801561085d5750600f54600854105b1561094857600b54670de0b6b3a7640000600760009054906101000a900473ffffffffffffffffffffffffffffffffffffffff1673ffffffffffffffffffffffffffffffffffffffff1663313ce5676040518163ffffffff1660e01b815260040160206040518083038186803b1580156108d657600080fd5b505afa1580156108ea573d6000803e3d6000fd5b505050506040513d602081101561090057600080fd5b8101908080519060200190929190505050600a0a83028161091d57fe5b04029150600f54826008540111156109435761094081600f546002600b546104cd565b91505b610b17565b600f546008541015801561095f5750601054600854105b15610a4a57600c54670de0b6b3a7640000600760009054906101000a900473ffffffffffffffffffffffffffffffffffffffff1673ffffffffffffffffffffffffffffffffffffffff1663313ce5676040518163ffffffff1660e01b815260040160206040518083038186803b1580156109d857600080fd5b505afa1580156109ec573d6000803e3d6000fd5b505050506040513d6020811015610a0257600080fd5b8101908080519060200190929190505050600a0a830281610a1f57fe5b0402915060105482600854011115610a4557610a42816010546003600c546104cd565b91505b610b16565b60105460085410610b1557600d54670de0b6b3a7640000600760009054906101000a900473ffffffffffffffffffffffffffffffffffffffff1673ffffffffffffffffffffffffffffffffffffffff1663313ce5676040518163ffffffff1660e01b815260040160206040518083038186803b158015610ac957600080fd5b505afa158015610add573d6000803e3d6000fd5b505050506040513d6020811015610af357600080fd5b8101908080519060200190929190505050600a0a830281610b1057fe5b040291505b5b5b5b60055482600854011115610c4c57600060055483600854010390506000600760009054906101000a900473ffffffffffffffffffffffffffffffffffffffff1673ffffffffffffffffffffffffffffffffffffffff1663313ce5676040518163ffffffff1660e01b815260040160206040518083038186803b158015610b9d57600080fd5b505afa158015610bb1573d6000803e3d6000fd5b505050506040513d6020811015610bc757600080fd5b8101908080519060200190929190505050600354670de0b6b3a7640000840281610bed57fe5b0481610bf557fe5b0490503373ffffffffffffffffffffffffffffffffffffffff166108fc829081150290604051600060405180830381858888f19350505050158015610c3e573d6000803e3d6000fd5b508184039350808303925050505b600760009054906101000a900473ffffffffffffffffffffffffffffffffffffffff1673ffffffffffffffffffffffffffffffffffffffff16630752881a33846040518363ffffffff1660e01b8152600401808373ffffffffffffffffffffffffffffffffffffffff1673ffffffffffffffffffffffffffffffffffffffff16815260200182815260200192505050600060405180830381600087803b158015610cf557600080fd5b505af1158015610d09573d6000803e3d6000fd5b5050505081600860008282540192505081905550806009600082825401925050819055505050565b60015481565b600e5481565b600c5481565b60095481565b600a5481565b60115481565b600760009054906101000a900473ffffffffffffffffffffffffffffffffffffffff1681565b600082821115610d8757fe5b818303905092915050565b600092915050565b6000818301905082811015610dab57fe5b80905092915050565b6000808311610dc257600080fd5b60018210158015610dd4575060048211155b610ddd57600080fd5b6001821415610eaa57600a54670de0b6b3a7640000600760009054906101000a900473ffffffffffffffffffffffffffffffffffffffff1673ffffffffffffffffffffffffffffffffffffffff1663313ce5676040518163ffffffff1660e01b815260040160206040518083038186803b158015610e5a57600080fd5b505afa158015610e6e573d6000803e3d6000fd5b505050506040513d6020811015610e8457600080fd5b8101908080519060200190929190505050600a0a850281610ea157fe5b04029050611106565b6002821415610f7757600b54670de0b6b3a7640000600760009054906101000a900473ffffffffffffffffffffffffffffffffffffffff1673ffffffffffffffffffffffffffffffffffffffff1663313ce5676040518163ffffffff1660e01b815260040160206040518083038186803b158015610f2757600080fd5b505afa158015610f3b573d6000803e3d6000fd5b505050506040513d6020811015610f5157600080fd5b8101908080519060200190929190505050600a0a850281610f6e57fe5b04029050611105565b600382141561104457600c54670de0b6b3a7640000600760009054906101000a900473ffffffffffffffffffffffffffffffffffffffff1673ffffffffffffffffffffffffffffffffffffffff1663313ce5676040518163ffffffff1660e01b815260040160206040518083038186803b158015610ff457600080fd5b505afa158015611008573d6000803e3d6000fd5b505050506040513d602081101561101e57600080fd5b8101908080519060200190929190505050600a0a85028161103b57fe5b04029050611104565b600d54670de0b6b3a7640000600760009054906101000a900473ffffffffffffffffffffffffffffffffffffffff1673ffffffffffffffffffffffffffffffffffffffff1663313ce5676040518163ffffffff1660e01b815260040160206040518083038186803b1580156110b857600080fd5b505afa1580156110cc573d6000803e3d6000fd5b505050506040513d60208110156110e257600080fd5b8101908080519060200190929190505050600a0a8502816110ff57fe5b040290505b5b5b9291505056fea265627a7a72315820bd562dd0248a552ab8a0b9bebf79a535d3ffed7d0d6aa3f3f8bb0ead1d50db5a64736f6c63430005100032",
  "source": "pragma solidity ^0.5.0;\n\nimport \"./SafeMath.sol\";\nimport \"./ICOToken.sol\";\n\ncontract Crowdsale {   \n   using SafeMath for uint;\n   bool icoCompleted;\n   uint public icoStartTime;\n   uint public icoEndTime;\n   uint public tokenRate;\n   address public tokenAddress;\n   uint public fundingGoal;\n   address payable owner;\n   ICOToken public token;   \n   uint public tokensRaised;\n   uint public etherRaised;\n\n   uint public rateOne = 5000;\n   uint public rateTwo = 4000;\n   uint public rateThree = 3000;\n   uint public rateFour = 2000;\n\n   uint public limitTierOne = 25000000 + (10 ** token.decimals());\n   uint public limitTierTwo = 50000000 + (10 ** token.decimals());\n   uint public limitTierThree = 75000000 + (10 ** token.decimals());\n   uint public limitTierFour = 100000000 + (10 ** token.decimals());\n\n   modifier whenIcoCompleted {      \n      require(icoCompleted);\n      _;\n   }\n\n   modifier onlyOwner {\n      require(msg.sender == owner);\n      _;\n   }\n\n   constructor(uint _icoStartTime, uint _icoEndTime, uint _tokenRate, address _tokenAddress, uint _fundingGoal) public {\n      require(_icoStartTime != 0 && _icoEndTime != 0 &&\n            _icoStartTime < _icoEndTime && _tokenRate != 0 &&\n            _tokenAddress != address(0) && _fundingGoal != 0);\n      icoStartTime = _icoStartTime;\n      icoEndTime = _icoEndTime;\n      tokenRate = _tokenRate;\n      tokenAddress = _tokenAddress;\n      fundingGoal = _fundingGoal;\n      token = ICOToken(_tokenAddress);\n      owner = msg.sender;\n      buy();   \n   }\n\n   function buy() public payable {  \n      require(tokensRaised < fundingGoal);\n      require(now < icoEndTime && now > icoStartTime); \n\n      uint tokensToBuy;\n      uint etherUsed = msg.value;\n\n   // If the tokens raised are less than 25 million with decimals, apply the first rate\n      if(tokensRaised < limitTierOne){\n         //Tier 1\n         tokensToBuy = etherUsed * (10 ** token.decimals()) / 1 ether * rateOne;\n\n         // If the amount of tokens that you want to buy gets out of this tier\n         if(tokensRaised + tokensToBuy > limitTierOne){\n            tokensToBuy = calculateExcessTokens(etherUsed, limitTierOne, 1, rateOne);\n         }\n      }else if(tokensRaised >= limitTierOne && tokensRaised < limitTierTwo){\n       //Tier 2\n         tokensToBuy = etherUsed * (10 ** token.decimals()) / 1 ether * rateTwo;  \n\n         // If the amount of tokens that you want to buy gets out of this tier\n         if(tokensRaised + tokensToBuy > limitTierTwo){\n            tokensToBuy = calculateExcessTokens(etherUsed, limitTierTwo, 2, rateTwo);\n         }\n      }else if(tokensRaised >=limitTierTwo && tokensRaised < limitTierThree){\n         //Tier 3\n         tokensToBuy = etherUsed * (10 ** token.decimals()) / 1 ether * rateThree;  \n\n        // If the amount of tokens that you want to buy gets out of this tier\n         if(tokensRaised + tokensToBuy > limitTierThree) {\n            tokensToBuy = calculateExcessTokens(etherUsed, limitTierThree, 3, rateThree);\n         }\n      }else if(tokensRaised >= limitTierThree) {\n        // Tier 4\n         tokensToBuy = etherUsed * (10 ** token.decimals()) / 1 ether * rateFour;\n      }\n      \n\n      // Check if we have reached and exceeded the funding goal to refund the exceeding tokens and ether\n      if(tokensRaised + tokensToBuy > fundingGoal) {\n         uint exceedingTokens = tokensRaised + tokensToBuy - fundingGoal;\n\n         uint exceedingEther;         \n\n         // Convert the exceedingTokens to ether and refund that ether         \n         exceedingEther = exceedingTokens * 1 ether / tokenRate / token.decimals();\n\n         msg.sender.transfer(exceedingEther);\n\n         // Change the tokens to buy to the new number         \n         tokensToBuy -= exceedingTokens;         \n\n         // Update the counter of ether used         \n         etherUsed -= exceedingEther;\n      }\n\n      // Send the tokens to the buyer\n      token.buyTokens(msg.sender, tokensToBuy);\n\n      // Increase the tokens raised and ether raised state variables\n      tokensRaised += tokensToBuy;      \n      etherRaised += etherUsed;\n   }\n\n//global transfer function to transfer the balance of the contract to the owner of it.\n   function extractEther() public whenIcoCompleted onlyOwner {   \n      owner.transfer(address(this).balance);\n   }\n\n\n   function calculateExcessTokens(\n   uint amount,\n   uint tokensThisTier,\n   uint tierSelected,\n   uint _rate\n) public returns(uint totalTokens) {\n   require(amount > 0 && tokensThisTier > 0 && _rate > 0);\n   require(tierSelected >= 1 && tierSelected <= 4);   uint weiThisTier = tokensThisTier.sub(tokensRaised).div(_rate);\n   uint weiNextTier = amount.sub(weiThisTier);\n   uint tokensNextTier = 0;\n   bool returnTokens = false;   // If there are excessive weis for the last tier, refund those\n   if(tierSelected != 4)\n      tokensNextTier = calculateTokensTier(weiNextTier, tierSelected.add(1));\n   else\n      returnTokens = true;   totalTokens = tokensThisTier.sub(tokensRaised).add(tokensNextTier);   // Do the transfer at the end\n   if(returnTokens) msg.sender.transfer(weiNextTier);\n}function calculateTokensTier(uint weiPaid, uint tierSelected)\n   internal view returns(uint calculatedTokens)\n{\n   require(weiPaid > 0);\n   require(tierSelected >= 1 && tierSelected <= 4);if(tierSelected == 1)\n      calculatedTokens = weiPaid * (10 ** token.decimals()) / 1 ether * rateOne;\n   else if(tierSelected == 2)\n      calculatedTokens = weiPaid * (10 ** token.decimals()) / 1 ether * rateTwo;\n   else if(tierSelected == 3)\n      calculatedTokens = weiPaid * (10 ** token.decimals()) / 1 ether * rateThree;\n   else\n      calculatedTokens = weiPaid * (10 ** token.decimals()) / 1 ether * rateFour;\n}\n}",
  "sourcePath": "/Volumes/Macintosh HD/Users/apple/Sites/TokenICO/contracts/CrowdSale.sol",
  "compiler": {
    "name": "solc",
    "version": "0.5.16+commit.9c3226ce.Emscripten.clang"
  },
  "schemaVersion": "3.4.1",
  "updatedAt": "2021-07-06T11:58:43.754Z",
  "devdoc": {
    "methods": {}
  },
  "userdoc": {
    "methods": {}
  }
}